:0400000057EF00F0C6
:10000800FACF1BF0FBCF1CF0E9CF1DF0D4EF00F0C6
:10001800D8CF03F0E8CF04F0E0CF05F0FACF06F030
:10002800FBCF07F0E9CF08F0EACF09F0E1CF0AF0FB
:10003800E2CF0BF0D9CF0CF0DACF0DF0F3CF0EF002
:10004800F4CF0FF0F6CF10F0F7CF11F0F8CF12F091
:10005800F5CF13F0F2BAF2A403D0B9EC01F000D056
:1000680013C0F5FF12C0F8FF11C0F7FF10C0F6FF6C
:100078000FC0F4FF0EC0F3FF0DC0DAFF0CC0D9FFAC
:100088000BC0E2FF0AC0E1FF09C0EAFF08C0E9FFB0
:1000980007C0FBFF06C0FAFF05C0E0FF04C0E8FF89
:1000A80003C0D8FF10002DEF01F0196E6CD0010EBF
:1000B800346E12003ED035C033F0000E346E12009C
:1000C8001AD035C030F022D035C031F01FD03050B2
:1000D800186E176A315017242C6E000E18202D6EDA
:1000E80030C014F0000E89EC01F031C014F0010E9C
:1000F80089EC01F00BD03350010AD8B4E2D7030AD7
:10010800D8B4E2D7010AD8B4E2D700D03350010DF1
:10011800600EF324D96E000EF420DA6E35C0DFFFCE
:10012800332A3F0E336402D0000E336E010E346E54
:1001380012003450000AD8B4DED7010AD8B4BBD7AD
:10014800E5D7120017D030C0C9FF120031C0C9FF6F
:1001580012003350010D600EF324D96E000EF42006
:10016800DA6EDF50C96E332A3F0E33641200000E78
:10017800336E12003350010AD8B4E5D7030AD8B455
:10018800E5D7E7D712001950000AD8B490D7010A6A
:10019800D8B4F0D7030AD8B4CCD7010A1200120099
:1001A800EACF1EF0E1CF1FF0E2CF20F0D9CF21F047
:1001B800DACF22F0F3CF23F0F4CF24F0F6CF25F0F6
:1001C800F7CF26F0F8CF27F0F5CF28F09DB69EA6FA
:1001D80003D04DEC01F000D028C0F5FF27C0F8FF90
:1001E80026C0F7FF25C0F6FF24C0F4FF23C0F3FFA5
:1001F80022C0DAFF21C0D9FF20C0E2FF1FC0E1FF03
:100208001EC0EAFF1DC0E9FF1CC0FBFF1BC0FAFFB0
:100218001100000102030405060708090A0B0C0D6A
:100228000E0F101112131415161718191A1B1C1D6E
:100238001E1F202122232425262728292A2B2C2D5E
:100248002E2F303132333435363738393A3B3C3D4E
:100258003E3F346A336A1A0EF66E020EF76E000ECF
:10026800F86E00EE60F010EE40F00900F5CFEEFFFA
:10027800E550E150FAE1360EF66E040EF76E000E08
:10028800F86E0900F5CF35F0000EF86E000110EF9A
:1002980002F0550E1A6E9E96C9CF1AF0C7A40BD05D
:1002A800C7BAC5AC04D0030E59EC00F010D0010E4B
:1002B80059EC00F00CD0C7BA04D0000E59EC00F08D
:1002C80006D01AC035F0020E59EC00F000D0C688EE
:1002D8001200000EFEEC01F0306E010EFEEC01F093
:1002E800316E30502B6E2A6A31502A242C6E000E43
:1002F8002B202D6EF3EC01F0000E2D6E000E2C6EEF
:10030800F28CF28E010E326E1200156E000EF2BEE5
:10031800010E166E15C0A9FF14C0A8FFA69EA69CC4
:10032800A684F29E550EA76EAA0EA76EA68200D0CE
:10033800A6B2FED7A69416B002D0F29E01D0F28ED5
:100348001200000E896E270E926E000E776E500E08
:100358008A6EF00E936E000E786E000E8B6E9468A7
:10036800F70E7E6E0A0E7F6E1200F2942E502C2429
:10037800016E2F502D20026E02C001F0026A01505A
:10038800D76E2C502E24D66EE7EC01F01200990E91
:10039800D56E480ED76E080ED66E480E2F6E080E14
:1003A8002E6EF294F28A19EC02F01200800EC76EDB
:1003B800260EC66E010EC56EFE0E6F6E100EC86E4E
:1003C8009E969D8612003250D8B404D08988000EBB
:1003D800326E12008998010E326E1200120009EC7A
:1003E80002F0A5EC01F015EC02F0CBEC01F0DAEC30
:1003F80001F01200296E29C0A9FFA69CA69EA6801E
:1004080000F000F0A85012001200300ED36E040E57
:10041800D26E000E9B6E12006DEC01F0FFD757EF05
:1004280000F0D08E9F86F1941200D58E12005500F0
:020000040020DA
:08000000FFFFFFFFFFFFFFFF00
:020000040030CA
:0E000000FFAB191EFF8801FF03C003E00340A1
:00000001FF
